:020000040800F2
:10000000580700209D180008350300083703000832
:100010003B0300083F030008430300080000000002
:10002000000000000000000000000000470300087E
:1000300049030008000000004B0300084D030008BE
:10004000B7180008B7180008B7180008B718000854
:10005000B7180008B7180008B7180008B718000844
:10006000B7180008B7180008B7180008B718000834
:10007000B7180008B7180008B7180008B718000824
:10008000B7180008B7180008B7180008B718000814
:10009000B7180008B7180008B7180008B718000804
:1000A000B7180008B7180008B7180008B7180008F4
:1000B000B7180008B7180008A1020008B718000810
:1000C000B7180008B7180008B7180008B7180008D4
:1000D000B71800082B180008A30800088B090008AF
:1000E000B7180008B7180008B7180008B7180008B4
:1000F000B7180008B7180008B7180008B7180008A4
:10010000B7180008B7180008B7180008B718000893
:10011000B7180008B7180008B7180008B718000883
:10012000B7180008B7180008B7180008B718000873
:1001300000F002F800F03FF80AA090E8000C8244BA
:100140008344AAF10107DA4501D100F034F8AFF297
:10015000090EBAE80F0013F0010F18BFFB1A43F0A5
:10016000010318474C3E00006C3E0000103A24BFCB
:1001700078C878C1FAD8520724BF30C830C144BF0C
:1001800004680C607047000000230024002500264E
:10019000103A28BF78C1FBD8520728BF30C148BFEA
:1001A0000B607047642903F0D980002070471FB5A9
:1001B0001FBD10B510BD03F097F91146FFF7F7FF0B
:1001C00000F008F803F0B5F903B4FFF7F2FF03BC41
:1001D00000F0DEFC1CB500F0ABF901F065FA01F0AF
:1001E000CDFA00F007FB00F07DFB4FF4A06001F0BA
:1001F00075FB00F0C5FA472149F63F4000F0FCF9D5
:10020000472140F2F31000F0A9F900F022FA00F0C3
:100210006DFA4FF47A7001F084FA4FF47A7001F0BD
:1002200080FA4FF47A7001F07CFA4FF47A7001F0A2
:1002300078FA4FF47A7001F074FA4FF47A7001F0A2
:1002400070FA4FF47A7001F06CFA4FF47A7001F0A2
:1002500068FA4FF47A7001F064FA4FF47A7001F0A2
:1002600060FA00200090284B9622FA21019027483E
:1002700001F0C0F900200090234B9622FA21019052
:10028000234801F0B7F90AE002E0052000F0D0FCB5
:100290004FF400711F4801F082FC0028F5D1F3E70C
:1002A00010B501211C4802F000FE01282BD10121CC
:1002B000194802F00BFE032000F076FA1749086097
:1002C000022000F071FA1649086014480468002CF6
:1002D00001DB204600E060420146124802680B48FC
:1002E00001F0A5F9104908600D480468002C01DBF5
:1002F000204600E0604201460C480268044801F0D4
:1003000096F90B49086010BD3333B33F74000020E9
:10031000A4000020000C014000080040080000205C
:100320000C0000200000002010000020040000202D
:1003300014000020704700BFFEE700BFFEE700BFCB
:10034000FEE700BFFEE77047704770477047000048
:100350000CB50020019000906C48006840F480309B
:100360006A49086000BF6948006800F400300090E6
:100370000198401C0190009818B90198B0F5A06F41
:10038000F1D16248006800F4003010B10120009003
:1003900001E0002000900098012843D15C480068EB
:1003A00040F010005A4908600846006820F0030039
:1003B00008600846006840F0020008605348406842
:1003C000524948600846406848600846406840F422
:1003D000806048600846406820F47C104860084609
:1003E000406840F4E81048600846006840F08070BB
:1003F000086000BF4548006800F000700028F9D090
:100400004248406820F00300404948600846406880
:1004100040F00200486000BF3C48406800F00C001B
:100420000828F9D10CBD10B5FFF792FF10BD10B52B
:100430003648006840F001003449086008464068CA
:10044000344908403149486008460068324908404C
:100450002E4908600846006820F48020086008469D
:10046000406820F4FE0048604FF41F008860FFF7EA
:10047000DAFF4FF000602949086010BD10B5002177
:1004800000200022214B5B6803F00C0121B10429FC
:1004900006D0082928D107E0214B224C236027E011
:1004A0001F4B204C236023E0184B5B6803F4701053
:1004B000164B5B6803F48032022303EB904022B9B1
:1004C000194B4343174C23600DE0104B5B6803F45A
:1004D000003323B1144B4343124C236003E0104B11
:1004E0004343104C236003E00D4B0E4C236000BFD0
:1004F00000BF064B5B68C3F303130C4CE15C094B74
:100500001B68CB40074C236010BD00000010024068
:10051000002002400000FFF8FFFFF6FE08ED00E0BB
:1005200000127A001800002000093D001C00002085
:1005300008B50121102001F05BFD4FF46040ADF8DB
:10054000000010208DF8030003208DF8020069469A
:10055000014801F091FA08BD0010014030B589B0A2
:1005600005460C460121C80201F042FD012104208C
:1005700001F03EFD4FF4A060ADF8200018208DF88A
:10058000230003208DF8220008A9954801F074FA91
:10059000ADF81850ADF814400020ADF81A00ADF8D1
:1005A000160005A98F4801F05BFE6020ADF804003D
:1005B0000120ADF806000020ADF80C0001A9894823
:1005C00001F08BFE01A9874801F016FF082185483C
:1005D00002F0D2FA0821834802F0E4FA01218148AE
:1005E00002F09AF901217F4802F096FA01217D4834
:1005F00002F09EF909B030BD7FB505460C460121D9
:10060000042001F002FDADF80850ADF804400020D0
:10061000ADF80A00ADF8060001A9734801F020FE0C
:1006200001221146704802F092F91E208DF8000058
:1006300001208DF8010002208DF8020001208DF8C4
:100640000300684601F04FF90121674802F064F9A0
:100650007FBD00B587B00121084601F0D6FC01211D
:10066000042001F0C5FC0320ADF8000004208DF843
:10067000030069465A4801F0FFF904A802F01CF98A
:100680000020ADF810004FF6FF70ADF81400002008
:10069000ADF81600ADF8120004A94FF0804001F04B
:1006A000DFFD00231A4603214FF0804002F0E7F9F6
:1006B00001A802F014F90A20ADF80C0001A94007C6
:1006C00002F061F80121880702F0ECFB01221146DB
:1006D000900702F03CF900214FF0804002F0B0FB9F
:1006E0000121880702F018F907B000BD00B587B0F6
:1006F0000121022001F089FC0121042001F078FC95
:10070000C020ADF8000004208DF80300694634488D
:1007100001F0B2F904A802F0CFF80020ADF8100003
:100720004FF6FF70ADF814000020ADF81600ADF8DC
:10073000120004A92D4801F093FD02231A4603215B
:100740002A4802F09CF901A802F0C9F80A20ADF885
:100750000C0001A9254802F016F80121234802F0F7
:10076000A1FB01221146214802F0F1F800211F48A7
:1007700002F066FB01211D4802F0CEF807B000BD73
:1007800008B50121082001F033FC43F20300ADF865
:10079000000010208DF8030003208DF80200694648
:1007A000134801F069F908BD0146022902D0032966
:1007B00012D108E04FF08042928C10B200224FF02C
:1007C00080439A840AE0094A2432128810B2002237
:1007D000064B24331A8001E0002000BF00BF7047A1
:1007E00000080140002C01400008004000040040C7
:1007F000000C014000B587B00121042001F0F8FB96
:100800000121480401F001FC18208DF81B00042090
:10081000ADF8180003208DF81A0006A92D4801F044
:100820002BF904208DF81B000820ADF818000320D8
:100830008DF81A0006A9274801F01EF94FF416504A
:1008400002900020ADF814000C20ADF8120000203A
:10085000ADF81000ADF80E00ADF80C0002A91E486E
:1008600002F07BFB012240F225511B4802F00DFCF7
:100870004021194802F0E5FC0121174802F0F9FB7C
:1008800026208DF8040001208DF8070000208DF847
:10089000050002208DF8060001A801F024F807B039
:1008A00000BD10B540F225510B4802F0D3FC70B1E9
:1008B000094802F04FFC09490870084600783128C1
:1008C00004D14FF40041064801F083F910BD00BF88
:1008D000FCE700000008014000440040D400002074
:1008E0000010014000B587B00121082001F080FB15
:1008F0000121880401F089FB18208DF81B004FF4BA
:100900008060ADF8180003208DF81A0006A935485C
:1009100001F0B2F804208DF81B004002ADF8180079
:1009200003208DF81A0006A92E4801F0A5F84FF40F
:10093000165002900020ADF814000C20ADF8120003
:100940000020ADF81000ADF80E00ADF80C0002A9C3
:10095000254802F002FB012240F22551224802F014
:1009600094FB0121204802F084FB27208DF804002D
:1009700001208DF807008DF8050002208DF8060093
:1009800001A800F0B0FF07B000BD10B540F225513E
:10099000154802F05FFC18B3134802F0DBFBC4B249
:1009A000AA2C08D1012011490870002010490870B4
:1009B0001049087010BD0D480078012807D10C4877
:1009C00001780078401C0A4A10700B484454BB2C34
:1009D00006D1002005490870012006490870E9E7A2
:1009E00000BFE7E7000C0140004800402D00002058
:1009F0002C0000202E000020DE0000202DE9FC5FEE
:100A000082465C48C0F800A04FF400515A4801F0FB
:100A1000E0F84FF48051584801F0DDF8574800687D
:100A200002F069FE06460F46504602F064FE4FF0A3
:100A30006632534BCDE9000102F074FE8046324627
:100A40003B4602F083FD044602F028FE1FFA80FBBD
:100A500059464C4802F0F8F9BDE8FC9F2DE9FC5FCF
:100A600082464448C0F800A04FF48051424801F04B
:100A7000B0F84FF40051404801F0ADF83F4800682D
:100A800002F039FE06460F46504602F034FE4FF0A3
:100A900066323B4BCDE9000102F044FE804632460F
:100AA0003B4602F053FD044602F0F8FD1FFA80FBBE
:100AB0005946344802F0C8F9BDE8FC9F2DE9FC5FB7
:100AC00082463148C0F800A002212B4801F081F88D
:100AD0000121294801F07FF82C48006802F00BFE44
:100AE00006460F46504602F006FE4FF06632244B93
:100AF000CDE9000102F016FE804632463B4602F088
:100B000025FD044602F0CAFD1FFA80FB59461D4828
:100B100002F09EF9BDE8FC9F2DE9FC5F82461A4871
:100B2000C0F800A00121144801F053F80221124836
:100B300001F051F81548006802F0DDFD06460F4649
:100B4000504602F0D8FD4FF066320D4BCDE9000162
:100B500002F0E8FD804632463B4602F0F7FC0446D0
:100B600002F09CFD1FFA80FB5946064802F070F91E
:100B7000BDE8FC9F04000020000C01401400002090
:100B80006666F63F002C01400000002010000020A7
:100B900000BF704770B504460D46FE480068022845
:100BA0000AD100BF4021FC4802F03EFB0028F9D0EA
:100BB000E1B2F94802F0CAFAF648006801280AD101
:100BC00000BF4021F54802F02FFB0028F9D0E1B228
:100BD000F24802F0BBFAEF48006803280AD100BFD0
:100BE0004021EF4802F020FB0028F9D0E1B2EC48A8
:100BF00002F0ACFA204670BD70B506460C461546AC
:100C00003046FFF789FF2046FFF728FFA8B200F023
:100C100088FD70BD70B506460C4615463046FFF798
:100C20004DFF2046FFF71AFFA8B200F07AFD70BD15
:100C300010B504460020FFF741FF0020FFF70EFF2C
:100C4000A0B200F06EFD10BD70B506460C4615460C
:100C50003046FFF733FF2046FFF7D0FEA8B200F082
:100C600060FD70BD70B505460C462846FFF754FF81
:100C70002846FFF7F3FEA0B200F053FD70BD10B59B
:100C80007820FFF71BFF7820FFF7E8FEC5480078C3
:100C90001938C54908600846006800280CDD084678
:100CA0000068012808DC8020FFF708FF7820FFF7A4
:100CB000D5FE052000F011FDBB48006800280DDAC4
:100CC000B9480068B0F1FF3F08DB7820FFF7F6FE77
:100CD0008020FFF7C3FE052000F0FFFCB24800684B
:100CE00001280CDDB0480068042808DC8720FFF7E5
:100CF000E5FE7820FFF7B2FE052000F0EEFCAA48E2
:100D0000006800280DDAA848006810F1040F08DB1D
:100D10007820FFF7D3FE8720FFF7A0FE052000F024
:100D2000DCFCA1480068042808DDA020FFF7C6FE0F
:100D30007820FFF793FE052000F0CFFC9A4800686A
:100D400010F1040F08DA7820FFF7B8FEA020FFF7B3
:100D500085FE052000F0C1FC10BD90E09148807830
:100D600008B9FFF78CFF8F488078012818D18F4889
:100D70000068A8B9AA2278210846FFF74BFF4FF474
:100D80007A70FFF755FF4FF4D27278210846FFF7CB
:100D900033FF4FF47A70FFF74BFF002081498870D2
:100DA00080488078022835D18148006890BBAA220B
:100DB00078210846FFF72EFF4FF4FA70FFF738FF4F
:100DC0004FF400517B4800F004FF02E00520FFF7DC
:100DD0002FFF4FF40071784800F0E1FE0028F5D0B5
:100DE0004FF4FA70FFF724FF4FF40051714800F000
:100DF000F2FE4FF439717820FFF734FF01206B4980
:100E000008606B4908600020664988704FF47A706A
:100E1000FFF70EFF63488078012819D16348006806
:100E2000012815D1962278210846FFF7F3FE4FF4EA
:100E30004870FFF7FDFE4FF4CD7278210846FFF7AA
:100E400003FF4FF47A70FFF7F3FE002055498870D6
:100E500057480068012812D15248807802280ED1E4
:100E6000AA2278210846FFF7D5FE07E00520FFF704
:100E7000DFFE4FF480414F4800F0ABFEF6E76DE730
:100E8000A5E04848807808B9FFF7F9FE4548807822
:100E9000012818D145480068A8B9AA227821084637
:100EA000FFF7B8FE4FF47A70FFF7C2FE4FF4D2722C
:100EB00078210846FFF7C8FE4FF47A70FFF7B8FEB6
:100EC00000203849887037488078022835D1384862
:100ED000006890BBAA2278210846FFF79BFE4FF4DA
:100EE000FA70FFF7A5FE4FF40051324800F071FE92
:100EF00002E00520FFF79CFE4FF400712E4800F041
:100F00004EFE0028F5D04FF400512A4800F063FE51
:100F10004FF4FA70FFF78CFE4FF439717820FFF729
:100F2000A1FE0120214908602149086000201D49D7
:100F300088704FF47A70FFF77BFE1A48807801289A
:100F400019D11A480068012815D19622782108463F
:100F5000FFF760FE4FF44870FFF76AFE4FF4CD7262
:100F600078210846FFF748FE4FF47A70FFF760FEDD
:100F700000200C4988700B488078022827D10C4843
:100F80000068012823D1AA2278210846FFF742FEF3
:100F90001CE0000030000020004400400038014008
:100FA0000048004053000020400000204400002082
:100FB0003C00002000100140000C01400520FFF71C
:100FC00037FE4FF48041FE4800F003FEF6E758E795
:100FD00072E1FC48807808B9FFF751FEF948807843
:100FE000012818D1F8480068A8B9F848006890B9F5
:100FF0004FF4AF7278210846FFF70CFE0120F2494A
:1010000008600020F249F04A126841F82200ED49D8
:101010008870F0494870EB48807801284DD1EA4843
:101020000068012849D1E9480068002845D1E9480D
:10103000407806281ED10220E34908600120E449D7
:10104000E14A126841F82200A02278210846FFF701
:10105000E1FD4FF47A70FFF7EBFD4FF4D272782187
:101060000846FFF7C9FD4FF47A70FFF7E1FD002055
:10107000D4498870D748407807281ED10220D24929
:1010800008600221D248D04A126840F82210A022FB
:1010900078210846FFF7BEFD4FF47A70FFF7C8FDD0
:1010A0004FF4D27278210846FFF7CEFD4FF47A70E4
:1010B000FFF7BEFD0020C3498870C2488078012830
:1010C0004DD1C1480068022849D1C04800680028B5
:1010D00045D1C048407806281ED10320BA4908608F
:1010E0000121BB48B84A126840F82210AA22782190
:1010F0000846FFF78FFD4FF47A70FFF799FD4FF424
:10110000BE7278210846FFF777FD4FF47A70FFF73B
:101110008FFD0020AB498870AE48407807281ED16B
:101120000320A94908600221A948A74A126840F88B
:101130002210AA2278210846FFF76CFD4FF47A703E
:10114000FFF776FD4FF4BE7278210846FFF77CFD6D
:101150004FF47A70FFF76CFD00209A498870994827
:101160008078022835D19C48006890BBA022782165
:101170000846FFF74FFD4FF4FA70FFF759FD4FF4A3
:1011800000518F4800F025FD02E00520FFF750FDDB
:101190004FF40071914800F002FD0028F5D04FF4A3
:1011A000FA70FFF745FD4FF40051854800F013FD3C
:1011B0004FF439717820FFF755FD0120834908600D
:1011C0008549086000207F4988704FF4FA60FFF776
:1011D0002FFD7C488078012857D17C480068012881
:1011E00053D17948006800284FDB7948764909686F
:1011F00050F8210001281AD1A02278210846FFF7D3
:1012000009FD4FF47A70FFF713FD4FF4D272782185
:101210000846FFF719FD4FF47A70FFF709FD00202B
:101220006849887068480068401E674908606848D7
:101230006549096850F8210002281AD1A0227821B6
:101240000846FFF7E7FC4FF47A70FFF7F1FC4FF424
:10125000C87278210846FFF7CFFC4FF47A70FFF789
:10126000E7FC00205749887057480068401E5649DF
:10127000086057485449096850F8210028B94FF4CC
:10128000AF7278210846FFF7C5FC53480068012873
:1012900012D14C48807802280ED1AA227821084623
:1012A000FFF7B8FC07E00520FFF7C2FC4FF48041D0
:1012B000434800F08EFCF6E78BE688E141488078F1
:1012C00008B9FFF7DCFC3F488078012818D13E4878
:1012D0000068A8B93D48006890B94FF4AF72782112
:1012E0000846FFF797FC012037490860002038497D
:1012F000354A126841F822003249887035494870F1
:101300003048807801284DD12F480068012849D104
:101310002E480068002845D12E48407806281ED166
:1013200002202949086001212948274A126840F80B
:101330002210A02278210846FFF76CFC4FF47A7047
:10134000FFF776FC4FF4D27278210846FFF754FC81
:101350004FF47A70FFF76CFC00201A4988701D4822
:10136000407807281ED1022017490860022118483A
:10137000154A126840F82210A02278210846FFF78B
:1013800049FC4FF47A70FFF753FC4FF4D272782186
:101390000846FFF759FC4FF47A70FFF749FC00202C
:1013A000084988700748807801285ED1064800689F
:1013B00002285AD105480068002856D105480FE098
:1013C000001001405300002038000020440000209D
:1013D000E8000020DE0000203C000020000C01405E
:1013E000407806281ED103207949086001217948F8
:1013F000774A126840F82210AA2278210846FFF79F
:1014000009FC4FF47A70FFF713FC4FF4BE72782199
:101410000846FFF7F1FB4FF47A70FFF709FC002054
:101420006D4988706D48407807281ED103206849AF
:10143000086002216748664A126840F82210AA2212
:1014400078210846FFF7E6FB4FF47A70FFF7F0FBD0
:101450004FF4BE7278210846FFF7F6FB4FF47A701E
:10146000FFF7E6FB00205C4988705B488078022823
:1014700032D1A02278210846FFF7CCFB4FF4FA7056
:10148000FFF7D6FB4FF40051554800F0A2FB02E0F5
:101490000520FFF7CDFB4FF40071524800F07FFBB1
:1014A0000028F5D04FF400514D4800F094FB4FF464
:1014B000FA70FFF7BDFB4FF439717820FFF7D2FBCC
:1014C0000120494908604949086000204249887064
:1014D0004FF4FA60FFF7ACFB3F48807801285FD1FA
:1014E0004148006801285BD139480068002857DB73
:1014F00038483749096850F8210001281AD1A0223C
:1015000078210846FFF786FB4FF47A70FFF790FBCF
:101510004FF4D27278210846FFF796FB4FF47A70A9
:10152000FFF786FB00202C49887029480068401E80
:101530002749086027482649096850F821000228F1
:101540001AD1A02278210846FFF764FB4FF47A7085
:10155000FFF76EFB4FF4C87278210846FFF74CFB8B
:101560004FF47A70FFF764FB00201B49887018481D
:101570000068401E1649086015480068012803D11C
:1015800031211BA001F0AAFE12481149096850F848
:10159000210028B94FF4AF7278210846FFF73AFBD3
:1015A00012480068012812D10B48807802280ED119
:1015B000AA2278210846FFF72DFB07E00520FFF758
:1015C00037FB4FF48041064800F003FBF6E775E671
:1015D00038000020E800002053000020DE0000203A
:1015E00000100140000C0140440000203C0000209D
:1015F0002564000070B5DDE90454C285818503606F
:101600004560846070BD70B504460D46294620686B
:1016100002F026FC00D2256085F0004630462168A5
:1016200002F01EFC02D285F00040206070BD2DE962
:10163000F04104460D461646284602F0E5FA2061C0
:10164000304602F0E1FAE060701B02F0DDFAA061C2
:10165000A169206802F038FBE061A169606802F0CE
:1016600033FB0746216A02F045FA2062E08D02F062
:10167000E3FA0746394604F12000FFF7C4FFD4E936
:10168000070102F037FAA062A08D02F0D5FA0746F2
:10169000394604F12800FFF7B6FFA0696061A06A2F
:1016A00002F096FABDE8F08110B56FF0040000F08A
:1016B00064F92E4800682E49B0FBF1F02D490870FE
:1016C0000846007800EB4001C1EBC0104FF6FF71F7
:1016D00001EAC0002849088010BD0146254A127859
:1016E0004A434FF0E0235A6100229A611A46126978
:1016F00042F001021A6100BF4FF0E022106900F0D1
:1017000001021AB100F48032002AF5D04FF0E02235
:10171000126922F001024FF0E0231A6100229A615F
:1017200070470146144A12884A434FF0E0235A6139
:1017300000229A611A46126942F001021A6100BF42
:101740004FF0E022106900F001021AB100F480327B
:10175000002AF5D04FF0E022126922F001024FF08A
:10176000E0231A6100229A617047000018000020EF
:1017700000127A004C0000204E00002000B587B017
:101780000121084600F034FC012144F2080000F079
:101790002FFC0121042000F040FA4020ADF80800A1
:1017A00003208DF80A0018208DF80B0002A9354897
:1017B00000F062F98020ADF8080004208DF80B00DD
:1017C00002A9304800F058F925208DF804000320C4
:1017D0008DF805008DF8060001208DF8070001A89E
:1017E00000F081F84FF4165003900020ADF810007F
:1017F000ADF81200ADF81400ADF818000C20ADF8EB
:10180000160003A9204801F0A8FB012240F225514F
:101810001D4801F03AFC01211B4801F02AFC40213F
:10182000194801F00EFD07B000BD10B540F225517A
:10183000154801F00FFD18B3134801F08BFCC4B23A
:10184000AA2C08D101201149087000201049087005
:101850001049087010BD0D480078012807D10C48C8
:1018600001780078401C0A4A10700B484454BB2C85
:1018700006D1002005490870012006490870E9E7F3
:1018800000BFE7E7000C0140003801405100002094
:1018900050000020520000205300002009488047DB
:1018A00009480047FEE7FEE7FEE7FEE7FEE7FEE742
:1018B000FEE7FEE7FEE7FEE704480549054A064B5A
:1018C000704700002F040008310100085801002073
:1018D00058070020580300205803002031490143D5
:1018E000314A1160704770B5002100230F22C4787F
:1018F00004B32D4C246804F4E064C4F5E064210AC8
:10190000C1F10403CA40447804FA03F18478144016
:1019100021430901254C0678A155047804F01F05E0
:101920000124AC4005786D11AD0005F1E025C5F846
:10193000004109E0047804F01F050124AC401C4D6F
:101940000678761145F8264070BD1A4A0A400243CF
:10195000154B1B1F1A60704739B1134A121D1268CC
:101960000243114B1B1D1A6006E00F4A121D12683C
:1019700082430D4B1B1D1A607047042808D14FF09D
:10198000E021096941F004014FF0E022116107E014
:101990004FF0E021096921F004014FF0E0221161CC
:1019A000704700000000FA050CED00E000E400E0E4
:1019B00080E100E080FFFF1F10B50446CC48844260
:1019C00008D10121042000F02DFB0021042000F0AB
:1019D00029FB46E0C748844208D10121082000F0D5
:1019E00021FB0021082000F01DFB3AE0C2488442A0
:1019F00008D10121102000F015FB0021102000F07B
:101A000011FB2EE0BD48844208D10121202000F0C6
:101A100009FB0021202000F005FB22E0B8488442A9
:101A200008D10121402000F0FDFA0021402000F003
:101A3000F9FA16E0B348844208D10121802000F071
:101A4000F1FA0021802000F0EDFA0AE0AE4884426D
:101A500007D10121801500F0E5FA0021A01500F062
:101A6000E1FA10BD10B50121084600F0DBFA0021B3
:101A7000012000F0D7FA10BD2DE9F0410246002503
:101A80000026002000230024002791F803C00CF05A
:101A90000F0591F803C00CF0100CBCF1000F03D03F
:101AA00091F802C04CEA050591F800C0BCF1000FA6
:101AB00031D0146800202BE04FF0010C0CFA00F339
:101AC000B1F800C00CEA03069E4220D183004FF01B
:101AD0000F0C0CFA03F7BC4305FA03FC4CEA0404B0
:101AE00091F803C0BCF1280F06D14FF0010C0CFA9D
:101AF00000FCC2F814C00AE091F803C0BCF1480F22
:101B000005D14FF0010C0CFA00FCC2F810C0401CCB
:101B10000828D1D31460B1F800C0BCF1FF0F34DD48
:101B2000546800202EE000F1080C4FF0010808FA7C
:101B30000CF3B1F800C00CEA03069E4221D18300E9
:101B40004FF00F0C0CFA03F7BC4305FA03FC4CEA08
:101B5000040491F803C0BCF1280F05D100F1080C72
:101B600008FA0CF8C2F8148091F803C0BCF1480FD1
:101B700007D100F1080C4FF0010808FA0CF8C2F880
:101B80001080401C0828CED35460BDE8F0814FF689
:101B9000FF710180022181700421C17070470246EB
:101BA000002093680B400BB1012000E0002070473B
:101BB0000146886880B2704702460020D3680B4017
:101BC0000BB1012000E0002070470146C86880B2D8
:101BD000704701617047416170470AB1016100E0DF
:101BE00041617047C16070474FF480320A4382619F
:101BF0008161826182698269704702460020434B9D
:101C000018684FF68073184040EA021008433F4BB3
:101C1000186070473E49C8617047F0B50A46002316
:101C200000240021002500F00046B6F1004F02D14B
:101C3000364EF16901E0354E7168C0F3034583B259
:101C400000F44016B6F5401F08D121F070612F4E08
:101C5000766826F070662D4F7E6012E000F48016E4
:101C6000B6F5801F06D1032606FA05F4A14341F01C
:101C7000706106E0460D360103FA06F6B14341F005
:101C8000706122B1460D360103FA06F6314300F0C9
:101C90000046B6F1004F02D11C4EF16101E01B4E2F
:101CA0007160F0BD30B500228B071C0F0F2303FAC3
:101CB00004F2164B08338C1053F824309343134C22
:101CC00008348D1044F8253023468C1053F8243006
:101CD0008C07240F00FA04F423430C4C08348D10B5
:101CE00044F8253030BD0A49DC31086070470000F7
:101CF00000080140000C01400010014000140140A8
:101D000000180140001C014000200140000001407B
:101D100000002042DF48006840F00100DD49086013
:101D200008464068DC490840DA49486008460068CF
:101D3000DA490840D74908600846006820F4802046
:101D400008600846406820F4FE0048604FF41F0019
:101D500088607047CF49096821F48031CD4A11600D
:101D60001146096821F480211160B0F5803F03D04D
:101D7000B0F5802F0ED106E0C649096841F48031E4
:101D8000C44A116007E0C349096841F4A021C14A6F
:101D9000116000E000BF00BF704710B5014600228F
:101DA000002300204A11012A02D1BA4C236806E020
:101DB000022A02D1B74C236A01E0B64C636A01F0F3
:101DC0001F02012494401C400CB1012000E00020BF
:101DD00010BD38B5002000900024002500BF312040
:101DE000FFF7DBFF05460098401C00900098B0F517
:101DF000A06F01D0002DF2D03120FFF7CEFF08B147
:101E0000012400E00024204638BD01460020A14AFC
:101E1000106820F0F80040EAC10010607047A04947
:101E200008607047024600209A4B586820F47C10E6
:101E300042EA01031843974B586070479849086677
:101E4000704701460020934A506820F00300084381
:101E5000506070478F48406800F00C0070470146A2
:101E600000208C4A506820F0F00008435060704712
:101E700001460020874A506820F4E0600843506023
:101E8000704701460020834A506820F4605040EAC1
:101E9000C1005060704729B17E4A527A02437D4B9F
:101EA0005A7204E07B4A527A82437A4B5A727047E4
:101EB0007B49D8310860704701460020754A506858
:101EC00020F440400843506070470021714A20329E
:101ED0001170704A82F82010012802D004280AD11B
:101EE00004E001216B4A2032117005E00521694AA6
:101EF0002032117000E000BF00BF704769490860E0
:101F000070476449096A0143624A11627047654932
:101F100044390860704730B50021002200240023B6
:101F20005C4D6D6805F00C0121B1042905D008292C
:101F300023D105E05C4D056022E05B4D05601FE0AC
:101F4000544D6D6805F47012524D6D6805F480347F
:101F5000022505EB92421CB9544D554305600BE038
:101F60004C4D6D6805F400351DB1504D554305606D
:101F700002E04D4D5543056002E04B4D056000BF4A
:101F800000BF444D6D6805F0F0010909484D6B5CD8
:101F90000568DD4045603F4D6D6805F4E061090A64
:101FA000434D6B5C4568DD4085603A4D6D6805F4D6
:101FB0006051C90A3E4D6B5C4568DD40C560354DDA
:101FC0006D6805F44041890B3A4D6B5CC568B5FB03
:101FD000F3F5056130BD29B12E4A526902432D4BFC
:101FE0005A6104E02B4A526982432A4B5A61704776
:101FF00029B1284A92690243264B9A6104E0254A96
:1020000092698243234B9A61704729B1214AD26970
:102010000243204BDA6104E01E4AD26982431D4B21
:10202000DA61704729B11B4AD2680243194BDA6062
:1020300004E0184AD2688243164BDA60704729B12F
:10204000144A12690243134B1A6104E0114A1269DF
:102050008243104B1A61704712494039086070473B
:102060000F49C86470470B49C87170470948406AF6
:1020700040F0807007494862704701460020054AD9
:1020800092680A400AB1012000E00020704701492F
:1020900088727047001002400000FFF8FFFFF6FE54
:1020A000000042428004424200127A0000093D00D2
:1020B0005D0000206D00002010B50446FE488442FB
:1020C00008D10121C014FFF7ADFF0021E014FFF794
:1020D000A9FFC4E0B4F1804F08D101210846FFF701
:1020E000AEFF00210120FFF7AAFFB8E0F3488442C9
:1020F00008D101210220FFF7A2FF00210220FFF7F3
:102100009EFFACE0EE48844208D101210420FFF795
:1021100096FF00210420FFF792FFA0E0E9488442E7
:1021200008D101210820FFF78AFF00210820FFF7CE
:1021300086FF94E0E448844208D101211020FFF793
:102140007EFF00211020FFF77AFF88E0DF488442FD
:1021500008D101212020FFF772FF00212020FFF786
:102160006EFF7CE0DA48844208D101214014FFF779
:1021700059FF00216014FFF755FF70E0D5488442F5
:1021800009D10121C804FFF74DFF00214FF40020C1
:10219000FFF748FF63E0D048844209D101210805D8
:1021A000FFF740FF00214FF48010FFF73BFF56E0A0
:1021B000CA48844209D101214805FFF733FF0021B5
:1021C0004FF40010FFF72EFF49E0C548844208D1C4
:1021D00001214020FFF733FF00214020FFF72FFFB0
:1021E0003DE0C048844208D101218020FFF727FF4D
:1021F00000218020FFF723FF31E0BB48844208D153
:1022000001218015FFF71BFF0021A015FFF717FF25
:1022100025E0B648844209D101210804FFF702FFF6
:1022200000214FF48030FFF7FDFE18E0B0488442F3
:1022300009D101214804FFF7F5FE00214FF40030D9
:10224000FFF7F0FE0BE0AB48844208D1012188047F
:10225000FFF7E8FE00214FF48020FFF7E3FE10BDFA
:1022600000220288944B98420ED0994B98420BD092
:10227000B0F1804F08D0914B984205D0904B9842D6
:1022800002D0904B984204D14FF68F731A404B887E
:102290001A438D4B984207D08C4B984204D04FF68E
:1022A000FF431A40CB881A4302808B8883850B88B2
:1022B0000385814B98420BD0854B984208D08B4BBD
:1022C000984205D08A4B984202D08A4B984201D15D
:1022D0000B7A038601238382704770B500240022A5
:1022E0000023058C4FF6FE7635400584028C8388EA
:1022F000048B4FF68F752C40B51E2C400D882C4357
:10230000751E2A400D892A434D882A436A4DA842EA
:102310000BD06F4DA84208D0744DA84205D0744D23
:10232000A84202D0734DA84213D14FF6F7752A4048
:102330004D892A434FF6FB752A408D882A434FF674
:10234000FF652B404FF6FF552B408D892B43CD89E0
:102350002B4383800483CD888586028470BD70B54D
:10236000002400220023058C4FF6EF7635400584CB
:10237000028C8388048B48F6FF752C404FF6FF458E
:102380002C400D884FF6FF7606EA05252C434FF6C4
:10239000DF752A400D8906EA05152A434D8806EAAD
:1023A00005152A43444DA84202D0494DA8421DD1EB
:1023B0004FF67F752A404D894FF6FF7606EA0515E0
:1023C0002A434FF6BF752A408D8806EA05152A4331
:1023D0004FF6FF352B404FF2FF752B408D8906EAF3
:1023E00085052B43CD8906EA85052B43838004832D
:1023F000CD880587028470BD70B5002400220023BB
:10240000058C4FF6FF6635400584028C8388848BEB
:102410004FF68F752C404FF6FC752C400D882C43E1
:102420004FF6FF552A400D894FF6FF7606EA05253F
:102430002A434D8806EA05252A431F4DA84202D0AB
:10244000234DA8421DD14FF2FF752A404D894FF60A
:10245000FF7606EA05252A434FF6FF352A408D8888
:1024600006EA05252A434EF6FF752B404DF6FF750B
:102470002B408D8906EA05152B43CD8906EA051503
:102480002B4383808483CD888587028470BD70B59B
:10249000002200230024058C4EF6FF76354005848B
:1024A000038C8488828B48F6FF752A404FF6FF45DF
:1024B0002A400D8820E00000002C0140000400406C
:1024C00000080040000C00400010004000140040D4
:1024D00000340140004C01400050014000540140D4
:1024E00000180040001C0040002000400040014057
:1024F00000440140004801404FF6FF7606EA0525FA
:102500002A434DF6FF752B400D8906EA05352B430E
:102510004D8806EA05352B43FA4DA84202D0FA4D04
:10252000A84208D14BF6FF752C408D894FF6FF76F7
:1025300006EA85152C4384808283CD88A0F840501C
:10254000038470BD828B4FF2FF331A408283828BEB
:102550004FF6FF7303EA01231A4382837047F0B5F5
:102560000C461546002200210026078C4EF6FF7C03
:1025700007EA0C070784828B018C4FF6FF7707EA86
:10258000043640F6FF473A404FF6FF7707EA052743
:102590003A434FF6FF7707EA03373A43D94FB84239
:1025A0000ED0D94FB8420BD0B0F1804F08D0D74FE2
:1025B000B84205D0D64FB84202D0D64FB84206D165
:1025C0004DF6FF77394046F48057394305E047F62A
:1025D000FF57394044F48057394382830184F0BD6A
:1025E000828B4FF6F3731A408283828B0A43828375
:1025F0007047F0B50C461546002200210026078CD6
:102600004FF6FF6C07EA0C070784828B018C4FF6AC
:10261000FF7707EA04264FF60C773A404FF6FF772C
:1026200007EA03172F433A43B64FB8420ED0B64FCE
:10263000B8420BD0B0F1804F08D0B44FB84205D0AB
:10264000B34FB84202D0B34FB84206D14FF6FF574E
:10265000394046F48077394305E04FF2FF5739405F
:1026600044F48077394382830184F0BD028B4FF2BA
:10267000FF331A400283028B4FF6FF7303EA0123F4
:102680001A4302837047F0B50C461546002200211C
:102690000026078C4FF6EF7C07EA0C070784028BB5
:1026A000018C4FF6FF7707EA041640F6FF473A40E1
:1026B0004FF6FF7707EA03373A434FF6FF7707EA0B
:1026C00005273A438F4FB8420ED08F4FB8420BD0F8
:1026D000B0F1804F08D08D4FB84205D08C4FB84232
:1026E00002D08C4FB84206D14FF6DF77394046F022
:1026F0001007394305E04FF65F77394044F0100783
:10270000394302830184F0BD028B4FF6F3731A4004
:102710000283028B0A4302837047F0B50C461546CC
:1027200000220021068C4FF6FE773E400684028B85
:10273000018C4FF60C7632407E1C06EA03162E43BF
:102740003243704EB0420ED06F4EB0420BD0B0F15B
:10275000804F08D06D4EB04205D06D4EB04202D0D1
:102760006C4EB04206D14FF6FD76314044F0010682
:10277000314305E04FF6F576314044F00106314330
:1027800002830184F0BD70B505460C465D48854264
:102790000ED05D4885420BD0B5F1804F08D05B4824
:1027A000854205D05A48854202D05A48854200D118
:1027B00000E000BF208850B92389A288618828469C
:1027C000FFF7ABFFE1882846FFF79EFF25E0208852
:1027D00004280AD12389A28861882846FFF753FF7D
:1027E000E1882846FFF742FF17E0208808280AD131
:1027F0002389A28861882846FFF7FBFEE1882846E6
:10280000FFF7EEFE09E02389A28861882846FFF7DA
:10281000A6FEE1882846FFF795FE70BD2DE9F04140
:1028200005460C4600260127608808B9022600E00C
:102830000026A088012801D1022700E00127208876
:10284000A0B92389A28861882846FFF766FFE1883E
:102850002846FFF759FF23893A4631462846FFF7B5
:1028600012FFE1882846FFF701FF13E02389A288C1
:1028700061882846FFF707FFE1882846FFF7F6FE44
:1028800023893A4631462846FFF747FFE188284624
:10289000FFF73AFFBDE8F0810A884B881A438B881E
:1028A0001A43CB881A430B891A434B891A438B89E5
:1028B0001A43A0F8442070474FF6FF718180002131
:1028C0000180C180418001727047002101804180F8
:1028D0008180C180018141818181C1817047002156
:1028E00001804180012181800021C18001817047E8
:1028F0000021018041808180C180018141818181ED
:1029000070470000002C01400034014000040040EA
:1029100000080040000C004021B1028842F0010292
:10292000028004E002884FF6FE731A40028070476E
:1029300031B1B0F8442042F40042A0F8442005E050
:10294000B0F84420C2F30E02A0F8442070471AB138
:1029500083890B43838102E083898B4383817047A2
:102960008182704741EA0203A0F8483070471AB1EB
:1029700083890B43838102E083898B438381704782
:1029800001894FF6F8721140018170470A46002113
:1029900001894FF68F73194011430181704730B59B
:1029A00004460D4629462046FFF7F0FF208940F0F7
:1029B0000700208130BD2DE9F04104460D46164642
:1029C0001F46602D06D13B46012231462046FFF7C7
:1029D0005AFE05E03B46012231462046FFF79DFEA8
:1029E00029462046FFF7D2FF208940F007002081CA
:1029F000BDE8F08130B50C4600210189C9B24FF61F
:102A0000FF7505EA0325154325432943018130BDA0
:102A10002DE9F04105460E461746984600244346E8
:102A20003A4631462846FFF7E5FF2C894FF6F87005
:102A3000044044F007044FF68F70044044F07004E3
:102A40002C81BDE8F081F0B504460D4616461F46C0
:102A50003B46324629462046FFF7CCFF208940F40A
:102A600080402081F0BD0185828270470A460021A6
:102A700001884FF68F731940114301807047F0B5FC
:102A80000C4615461E460021002200230189028BB8
:102A9000038C4FF6F877394021434FF6FC473A4014
:102AA00040F201173A434FF6DD773B404FF6FF7790
:102AB00007EA06172F433B43018102830384F0BDDD
:102AC0000A460021018B4FF68F7319401143018391
:102AD00070470A460021018B48F6FF7319404FF6F4
:102AE000FF7303EA02231943018370470A4600215A
:102AF000818B4FF68F7319401143818370470A46CB
:102B00000021818B48F6FF7319404FF6FF7303EAEB
:102B1000022319438183704721B1028842F0800269
:102B2000028004E002884FF67F731A4002807047EB
:102B300021B1828842F00402828004E082884FF64C
:102B4000FB731A408280704721B1828842F00802EC
:102B5000828004E082884FF6F7731A4082807047C3
:102B600021B1828842F00102828004E082884FF61F
:102B7000FE731A40828070470A460021018B4FF68F
:102B8000F77319401143018370470A460021018BF6
:102B90004FF2FF7319404FF6FF7303EA0223194304
:102BA000018370470A460021818B4FF6F773194065
:102BB0001143818370470A460021818B4FF2FF73D6
:102BC00019404FF6FF7303EA0223194381837047CC
:102BD0000A460021018B4FF6FB7319401143018314
:102BE00070470A460021018B4FF6FF3319404FF61C
:102BF000FF7303EA02231943018370470A46002149
:102C0000818B4FF6FB7319401143818370470A464D
:102C10000021818B4FF6FF3319404FF6FF7303EA13
:102C200002231943818370470A460021018B4FF626
:102C30007F7319401143018370470A460021018BBD
:102C4000C1F30E014FF6FF7303EA02231943018318
:102C500070470A460021818B4FF67F73194011435C
:102C6000818370470A460021818BC1F30E014FF624
:102C7000FF7303EA02231943818370470A46002148
:102C8000018C4FF6FD7319401143018470470A46C9
:102C90000021018C4FF6F7731940114301847047EE
:102CA0000A460021018C4FF6DF7319404FF6FF737F
:102CB00003EA02131943018470470A460021018C7C
:102CC0004FF67F7319404FF6FF7303EA021319435F
:102CD000018470470A460021018C4FF6FF531940CA
:102CE0004FF6FF7303EA02231943018470470A4633
:102CF0000021018C4FF2FF7319404FF6FF7303EA76
:102D000002231943018470470A460021018C4DF6C5
:102D1000FF7319404FF6FF7303EA0233194301842E
:102D2000704730B5002301248C40A3B2048C9C432F
:102D30000484048C02FA01F5ADB22C43048430BD46
:102D400030B5002304248C40A3B2048C9C4304843B
:102D5000048C02FA01F5ADB22C43048430BD70B589
:102D60000346002000241846183001258D40ACB2DF
:102D70001D8CA5431D8409B1082909D100EB610010
:102D8000056825F0700505600568154305600EE0CF
:102D90000D1FC5F34E052844056825F4E045056080
:102DA00005684FF6FF7606EA02263543056070BDDA
:102DB00021B1028842F00202028004E002884FF64C
:102DC000FD731A400280704721B1028842F004026C
:102DD000028004E002884FF6FB731A4002807047BD
:102DE00021B1828842F08002828004E082884FF61E
:102DF0007F731A408280704702884FF6F7731A403B
:102E0000028002880A430280704782884FF68F73DF
:102E10001A40828082880A438280704702894FF676
:102E2000F8731A40028102890A43028170470289BD
:102E30004FF67F731A40028102890A43028170476C
:102E4000818470478185704781867047018770470C
:102E500081877047A0F84010704702884FF6FF4303
:102E60001A40028002880A43028070470146888E19
:102E700070470146088F70470146888F70470146AA
:102E8000B1F8400070470146888C70470146088DB4
:102E9000704702460020138A0B400BB1012000E06E
:102EA00000207047CA430282704730B502460020B6
:102EB00000230024158A05EA0103958905EA010427
:102EC00013B10CB1012000E0002030BDCA430282E2
:102ED0007047000010B50446FB48844209D1012127
:102EE0008803FFF79FF800214FF48040FFF79AF81E
:102EF00032E0F648844209D101214804FFF79FF8E7
:102F000000214FF40030FFF79AF825E0F0488442A2
:102F100009D101218804FFF792F800214FF48020A5
:102F2000FFF78DF818E0EB48844209D10121C8046D
:102F3000FFF785F800214FF40020FFF780F80BE041
:102F4000E548844208D101210805FFF778F80021FF
:102F50004FF48010FFF773F810BD2DE9F04786B0ED
:102F600005460E460024A24600BFA1460027B089B0
:102F700000B100BF2F462C8A4CF6FF700440F08849
:102F800004432C82AC894EF6F3100440B08831899A
:102F90000843718908430443AC81AC8A4FF6FF4073
:102FA0000440B0890443AC8201A8FEF7B4FFC648D0
:102FB000874202D1DDF810A001E0DDF80CA0A8895D
:102FC00000F4004040B10AEBCA0000EB0A1031687F
:102FD0004900B0FBF1F807E00AEBCA0000EB0A1069
:102FE00031688900B0FBF1F86420B8FBF0F004010F
:102FF0002009642101FB1089A88900F4004040B138
:10300000322000EBC900B0FBF1F000F007000443F0
:1030100008E0322000EB09106421B0FBF1F000F071
:103020000F0004432C8106B0BDE8F0874FF4165121
:10303000016000218180C18001810C21418100213A
:103040008181704710B502460020108A4FF2FF03BD
:1030500018400B884C8823438C882343CC88234317
:103060001843108210BD0021018041808180C18001
:10307000704721B1828942F40052828104E0828942
:103080004DF6FF731A4082817047F0B50346002465
:1030900000260025002040F66A17B94200D100BF83
:1030A0001846C1F3421401F01F06012707FA06F57E
:1030B000012C01D10C3004E0022C01D1103000E0D1
:1030C00014301AB107682F43076002E00768AF4366
:1030D0000760F0BD1AB1838A0B43838202E0838AC2
:1030E0008B4383827047028A4FF6F0731A40028244
:1030F000028A0A430282704782894FF2FF731A40A4
:10310000828182890A438281704721B1828942F09B
:103110000202828104E082894FF6FD731A408281A7
:103120007047028A4FF6DF731A400282028A0A430E
:103130000282704721B1028A42F48042028204E096
:10314000028A4BF6FF731A4002827047C1F30802ED
:103150008280704701468888C0F3080070478189E3
:1031600041F0010181817047028BD2B20283028B50
:1031700042EA012202837047028B02F47F420283FB
:10318000028B0A430283704721B1828A42F02002F7
:10319000828204E0828A4FF6DF731A40828270478F
:1031A00021B1828A42F01002828204E0828A4FF6C4
:1031B000EF731A408282704721B1828A42F008027E
:1031C000828204E0828A4FF6F7731A408282704747
:1031D00021B1828942F40042828103E08289C2F3F4
:1031E0000E028281704721B1828A42F4006282829B
:1031F00004E0828A4FF2FF731A4082827047828A0B
:103200004FF6FB731A408282828A0A438282704799
:1032100021B1828A42F00202828204E0828A4FF661
:10322000FD731A408282704702460020B1F5007F8C
:1032300000D100BF13880B400BB1012000E000203B
:10324000704701F40072B2F5007F00D100BFCA439D
:103250000280704770B5024600240023002500203C
:1032600040F66A16B14200D100BFC1F3421501F029
:103270001F03012606FA03F3012D02D1968933407C
:1032800006E0022D02D1168A334001E0968A3340CF
:103290000C12012606FA04F41688344013B10CB15E
:1032A000012000E0002070BD10B50022002340F690
:1032B0006A14A14200D100BF0A1201249440A3B2B3
:1032C000DC43048010BD0000003801400044004091
:1032D00000480040004C0040005000400FB404493A
:1032E00010B503AA029800F0D1F810BC5DF814FBE9
:1032F000480000202DE9F0410E46044600202062DF
:103300002046E168884730B3252805D0D4E901215B
:103310009047206A401CF2E7E16820460027884772
:10332000050018D0A5F14100192802D820354FF426
:1033300000673246294620462760FCF733FF40B13C
:10334000012804D0F61D26F007060836D8E7361DFA
:10335000D6E72846DAE7206ABDE8F0812DE9F0419A
:103360000646002410687529314616A510D0AFF323
:103370000080002802DA404213A507E031688A077E
:1033800001D512A502E0490704D511A5012401E0E9
:10339000AFF3008000210A2206F1240709E0B0FB08
:1033A000F2FCB0FBF2F302FB1C00303078541846FC
:1033B000491C0028F3D123462A463046BDE8F04197
:1033C00000F00BB8000000002D0000002B000000F2
:1033D000200000007047704770472DE9F0470D4608
:1033E00099469246044600F124080168880604D5EF
:1033F000E06921F01001216000E00120A84201DD18
:10340000471B00E00027A1697A1902EB0900081A9E
:10341000A0612078C00602D42046AFF300800026C9
:1034200008E0D4E901211AF806009047206A401C00
:10343000761C20624E45F4DB2078C0060AD5204673
:10344000AFF3008006E0D4E9012130209047206AE4
:10345000401C2062381EA7F10107F4DC07E0D4E924
:10346000012118F805009047206A401C2062281EA0
:10347000A5F10105F3DC2046AFF3008020780006BB
:1034800002D50220BDE8F0870120FBE7074B70B5AD
:103490000D467B4400F011F80446284600F020F861
:1034A00010B14FF0FF3070BD204670BDFFD6FFFF5A
:1034B00001694A1C02610878704700B58FB0CDE9F8
:1034C00001310021059105497944CDE903101146E8
:1034D0006846FFF70FFF0FB000BD0000E5FFFFFFDC
:1034E000007B00F080007047754600F02BF8AE4678
:1034F00005006946534620F00700854618B020B500
:10350000FEF7DAF9BDE820404FF000064FF0000763
:103510004FF000084FF0000B21F00701AC46ACE87B
:10352000C009ACE8C009ACE8C009ACE8C0098D46E8
:10353000704710B50446AFF300802046BDE8104048
:10354000FCF742BE00487047F800002010B591EA31
:10355000030F48BF83F0004300F1EA81841A71EB46
:10356000030C05D2121943EB0C03001B61EB0C0199
:10357000DFF824E14FEA1154A4EB135C1EEA430F79
:1035800018BF9EEA445F73D023EA0E03DCF1200EDD
:1035900021EA045143F4801332D322FA0CFE10EBDB
:1035A0000E0023FA0CFE41EB0E01CCF1200E03FAC3
:1035B0000EFE10EB0E0051F10001B1F5801FCCF1B1
:1035C000200E32D201EB045112FA0EF2BDE8104087
:1035D00058BF7047401C38BF5FEA420218BF7047AF
:1035E000002814BF20F0010041F100014FEA41031F
:1035F00013F5001F38BF7047A1F1C04100F08AB930
:10360000012A43EB0302ACF1200CDCF11F0E32BFA8
:103610004FF0000E23FA0CF310EB030041EB0451C2
:10362000B4EB115FD0D0A1EB045101F58011490832
:103630005FEA300001EB04510ED350F1000038BFB7
:1036400012FA0EFE08D1BDE81040C9E7401C38BF91
:103650005FEA4202CAD1C3E7BDE810404FEA410326
:1036600013F5001F38BF7047A1F1C04100F052B9F7
:103670009EEA445F08D011EA5E0FBDE8104004BF27
:1036800001F0004100207047BDE8104070B500F027
:10369000F3F800BF64FBBE3E0000E0FF4FEA1153A9
:1036A000A3F58063D3F11E03A8BFD3F1200C08DB80
:1036B0004FF0004242EAC12252EA505232FA03F07D
:1036C000704709420BD4102BC4BF0020704703F58C
:1036D000787CBCF1FF3F05D04FF0FF3070474FF0D2
:1036E0000000704770B500F0C7F800BF4992248011
:1036F00000207047F0E710F0004248BF4042B0FAA7
:1037000080F310FA03F10AD0C3F11D0303F58063BF
:103710004FEA415002EB035202EBD12170474FF0C8
:1037200000007047DFF848C170B51CEA111E1EBFCB
:103730001CEA13159EEA0C0F95EA0C0F00F06F803F
:1037400081EA030423EA4C134EEAD47E21EA4C11A9
:1037500041F4801143F48013AE44A1FB024CA0FB62
:103760000365AEF17F7E361955EB0C05A1FB034CCA
:103770004CF10003A0FB021C16EB0C06654153F153
:103780000003094218BF46F0010613F4007F0BD175
:103790004FEA03314FEA0530340341EA155140EA5C
:1037A00016506FF003020AE04FEAC3214FEAC5202A
:1037B000F40241EA555140EA56506FF0020202EB22
:1037C0002E4201EB025585EACE710AD05FEA440C25
:1037D00018BF24F0004450F1000041F1000120EA3C
:1037E000D47040F2FE7C624500D270BDA84214BF86
:1037F0004FF080444FF04044002E08BF0024BEF13B
:10380000806FA8BFA1F1C041BDE8704080F2828006
:103810004FF0000001F1C04101F0004170479EEA05
:103820000C0F0CEA131518BF95EA0C0F06D04FF0D9
:10383000000081EA030E0EF0004170BD00F01CF89C
:103840008900013E00F007B800F009B84FEA430CC8
:103850005FEA5C5C08D081EA030100F05BB84FEAE4
:10386000410C5FEA5C5CF6D14FF000000149704703
:103870000000FF070000F87F0EF1020E2EF0030E8D
:103880005EF8046B364205D4012A43EB030515F5B7
:10389000001F12D8012841EB010C1CF5001F0CD8A9
:1038A0000ED14FEAD17C15F5001F0CEB4C0C0CF13E
:1038B000020C08BF4CEBD37C04E04FF0080C01E095
:1038C0004FEAD37C0CEB4C0526FA05F606F007060A
:1038D000B6F1040C06D20EEB860CBDE870404CF03D
:1038E000010C6047DFE80CF0090B02024FF00041C9
:1038F0004FF00000A1F5002170BD194610460128C7
:1039000051EB010418BFD4F5001484BF002001F06E
:10391000004170BD0808A0F500114FEA3101704761
:1039200010B591EA030F48BF83F000433FF516AE90
:10393000841A71EB030C07D212198CF0004C43EB84
:103940000C03001B61EB0C01DFF8A4E14FEA1154FA
:10395000A4EB135C1EEA430F18BF9EEA445F00F01D
:10396000B08023EA6E03524221EA0451C3EB6E0396
:1039700038BF5B1EDCF1200E25D322FA0CFE10EBC3
:103980000E0043FA0CFE41EB0E01CCF1200E03FABF
:103990000EFE10EB0E0051F10001CCF1200E29D4E7
:1039A00012FA0EF201EB0451BDE8104058BF704707
:1039B000401C1CBFB2F1004F704700280CBF491CCF
:1039C00020F00100704712EB020E43EB030218BF18
:1039D0004FF0010E4EEA4202ACF1200CDCF11E0E5B
:1039E00054D943FA0CFE10EB0E0051F1FF31CCF12B
:1039F0001E0ED5D50EF1010E12FA0EFE404141EB1E
:103A0000010101EB445C5FEA5C5C10D910EBDE70F5
:103A100001EB045138BFBEF1004FBDE8104018BFA4
:103A2000704700280CBF491C20F00100704730D2BD
:103A30004FEAD42C11F5001124F400641BD0B1FA24
:103A400081F20B3AA41AA41ED2F12003914030FA5D
:103A500003F31943904001EBCC71002C01EB0451AE
:103A6000BDE81040A8BF704701F1C0414FF0000011
:103A700001F000417047B0FA80F310FA03F100D171
:103A800010BDE41A173C4805C90AE4E701EB0451EC
:103A900010BD491001EB0451BDE810404FEA300061
:103AA00002E04FF0000170474A0008BF0042F8D022
:103AB000B2F5001F28BF704701F000414FF0000031
:103AC00070479EEA445F07D011EA5E0FBDE81040E0
:103AD00004BF002100207047BDE8104070B5FFF71B
:103AE000CBFE00BF40DFF63E83F00041104670473A
:103AF0000000E0FF90EA010F48BF81F0004100F1B3
:103B0000E881421A3CBF801A89184FEAD0524FF020
:103B10007F4C1CEA410FA2EBD15318BF9CEA026F05
:103B200000F03B804FF0004C4CEA00204CEA0121B1
:103B300021FA03FC10EB0C0C1ED202F1FF325FEAFB
:103B40001C2040EBC25038BF70471CF07F0F4FEA7B
:103B5000400C18BFBCF17F4F38BF7047C3F1200342
:103B6000994008BF20F00100BCF17F4F38BF70477B
:103B7000A0F1C04000F06FB94FEA3C00000A40EBF2
:103B8000C25028BF1CF0FF0F4FEA400CE6D018BF10
:103B9000BCF17F4F38BF7047EAE79CEA026F05D05F
:103BA00010EA5C0F08BF00F00040704710B500F04D
:103BB0000CF900BF64FBBE3E401058BFC0F140404E
:103BC000491058BFC1F140418142EFF30080704776
:103BD00041000B0ED3F19E0208D950F400034FEAC6
:103BE000032323FA02F048BF4042704710B500F0AB
:103BF000ECF800BF49922480002070476FF000422B
:103C000082EA20007047000010F0004148BF4042A7
:103C1000B0FA80F310FA03F2C3F19D030BD051EA1E
:103C2000C35101EB1220530638BF704700F1010069
:103C300008BF20F001007047B0FA80F310FA03F2D9
:103C4000C3F19D030AD0D90501EB1220530638BFFA
:103C5000704700F1010008BF20F00100704700002C
:103C600050EA010C00F113801CF5000F58BFBCF5A1
:103C7000000F01D48842704707D710F5000F58BFD6
:103C800011F5000F15D488427047894270471CF522
:103C9000000F04D5BCF5000FF7D5814270474FF0F7
:103CA000807C1CEB400F38BF1CEB410F01D28142DE
:103CB000704710B500F089F8922449004FF0005089
:103CC0004FF08051FFF778BF4FF47F0C1CEAD01201
:103CD0001EBF1CEAD11392EA0C0F93EA0C0F00F0FE
:103CE000478090EA010F48BF42F480724FF0004CC9
:103CF0004CEA00204CEA012102EB0302A0FB011375
:103D0000A2F50002002918BF43F001035B0028BFA1
:103D10004FEA330342EB22425FEA132C4CEBC250D2
:103D20002EBFBCEB436FB2F57C0F70474FEA036CBC
:103D3000BCF1004F08BF20F00100B2F57C0F38BF86
:103D400070470BD582F0FF0212F5803FC8BF704765
:103D500000F1C040D8BF00F00040704700F5000CF3
:103D60005FEA4C0C48BF7047B0F1C04000F073B838
:103D700090EA010F0CEAD11348BF42F48072624509
:103D800038BF634504D280EA010000F0004070476C
:103D900010B500F01AF800BF8900013E00F007B826
:103DA00000F009B85FEA410C5FEA1C6C08D080EAB9
:103DB000010000F050B85FEA400C5FEA1C6CF6D1DD
:103DC0004FF00040A0F5800070470EF1020E2EF07B
:103DD000030E5EF8044B244204D44FEA4102B2F1D0
:103DE0007F4F11D84FEA4003B3F17F4F0CD80ED16B
:103DF0004FEAD07CB2F17F4F0CEB4C0C0CF1020C73
:103E000008BF4CEBD17C04E04FF0080C01E04FEA16
:103E1000D17C0CEB4C0324FA03F404F00704B4F156
:103E2000040C06D20EEB840CBDE810404CF0010CE3
:103E30006047DFE80CF0070802024FF00040A0F5F1
:103E4000800010BD0846420018BFD2F1807288BFC2
:103E500000F0004010BDFF2141EAD050C00570477E
:103E600051EA000C00F113801CF5000F58BFBCF59F
:103E7000000F01D48142704707D711F5000F58BFDA
:103E800010F5000F15D481427047894270471CF528
:103E9000000F04D5BCF5000FF7D5884270474FF0EE
:103EA000807C1CEB410F38BF1CEB400F01D28842D5
:103EB000704780EA010081EA000180EA0100FFF713
:103EC000F8BE000090EA010F48BF81F000413FF5C5
:103ED00018AE421A04D882F00042A0EB020011444E
:103EE0004FEAD0524FF07F4C1CEA410FA2EBD15366
:103EF00018BF9CEA026F4AD04FF0004C4CEA0020F9
:103F00004CEA012121FA03FCB0EB0C0C0FD412F0A7
:103F1000FE0F36D05FEA4C001DD5001240EBC250B8
:103F200038BF70471CF03F0F18BF70470BE0A2F17D
:103F300001025FEA1C2040EBC25038BF70471CF002
:103F40007F0F18BF7047C3F12003994014BF401E74
:103F500020F00100704780084FEA122308BF704725
:103F6000B0FA80FCA2EB0C02CCF1280C60FA0CF049
:103F700093EA122F04BF00EBC25070474FEAC370A0
:103F80007047130A5FEADC1008BF7047F6E79CEA47
:103F9000026F04D010EA5C0F08BF0020704710B514
:103FA000FFF713FF40DFF63E81F00040704700004E
:103FB000D03F000800000020740000006C010008E1
:103FC0004440000874000020E40600008801000856
:103FD00000000000000000000000000000000000E1
:103FE000000000000000000000A24A0400000000E1
:103FF0000000000001020304060708090000000099
:1040000002000000000000000000000000000000AE
:1040100000000000000000000000000000000000A0
:104020000000001B00000000000000000000000075
:104030000001020304010203040607080902040642
:044040000800000074
:0400000508000131BD
:00000001FF
